{
  "contractName": "ShareApp",
  "abi": [
    {
      "constant": true,
      "inputs": [],
      "name": "numObjects",
      "outputs": [
        {
          "name": "",
          "type": "uint256"
        }
      ],
      "payable": false,
      "stateMutability": "view",
      "type": "function"
    },
    {
      "constant": true,
      "inputs": [],
      "name": "owner",
      "outputs": [
        {
          "name": "",
          "type": "address"
        }
      ],
      "payable": false,
      "stateMutability": "view",
      "type": "function"
    },
    {
      "inputs": [],
      "payable": false,
      "stateMutability": "nonpayable",
      "type": "constructor"
    },
    {
      "anonymous": false,
      "inputs": [
        {
          "indexed": false,
          "name": "objID",
          "type": "uint256"
        },
        {
          "indexed": false,
          "name": "creator",
          "type": "address"
        }
      ],
      "name": "NewObject",
      "type": "event"
    },
    {
      "constant": false,
      "inputs": [
        {
          "name": "objID",
          "type": "uint256"
        }
      ],
      "name": "objectIsRented",
      "outputs": [
        {
          "name": "",
          "type": "bool"
        }
      ],
      "payable": false,
      "stateMutability": "nonpayable",
      "type": "function"
    },
    {
      "constant": false,
      "inputs": [
        {
          "name": "name",
          "type": "string"
        },
        {
          "name": "priceDaily",
          "type": "uint256"
        },
        {
          "name": "deposit",
          "type": "uint256"
        },
        {
          "name": "detail",
          "type": "string"
        },
        {
          "name": "addr",
          "type": "string"
        }
      ],
      "name": "createObj",
      "outputs": [],
      "payable": false,
      "stateMutability": "nonpayable",
      "type": "function"
    },
    {
      "constant": false,
      "inputs": [
        {
          "name": "objID",
          "type": "uint256"
        }
      ],
      "name": "rentObj",
      "outputs": [
        {
          "name": "",
          "type": "bool"
        }
      ],
      "payable": true,
      "stateMutability": "payable",
      "type": "function"
    },
    {
      "constant": false,
      "inputs": [
        {
          "name": "objID",
          "type": "uint256"
        }
      ],
      "name": "returnObj",
      "outputs": [
        {
          "name": "",
          "type": "bool"
        }
      ],
      "payable": true,
      "stateMutability": "payable",
      "type": "function"
    },
    {
      "constant": true,
      "inputs": [
        {
          "name": "name",
          "type": "string"
        }
      ],
      "name": "findNames",
      "outputs": [
        {
          "name": "",
          "type": "uint256[]"
        }
      ],
      "payable": false,
      "stateMutability": "view",
      "type": "function"
    },
    {
      "constant": false,
      "inputs": [],
      "name": "getNumObjects",
      "outputs": [
        {
          "name": "",
          "type": "uint256"
        }
      ],
      "payable": false,
      "stateMutability": "nonpayable",
      "type": "function"
    },
    {
      "constant": false,
      "inputs": [],
      "name": "getObjectIds",
      "outputs": [
        {
          "name": "",
          "type": "uint256[]"
        }
      ],
      "payable": false,
      "stateMutability": "nonpayable",
      "type": "function"
    },
    {
      "constant": false,
      "inputs": [
        {
          "name": "objID",
          "type": "uint256"
        }
      ],
      "name": "getObjectName",
      "outputs": [
        {
          "name": "objName",
          "type": "string"
        }
      ],
      "payable": false,
      "stateMutability": "nonpayable",
      "type": "function"
    },
    {
      "constant": true,
      "inputs": [
        {
          "name": "objID",
          "type": "uint256"
        }
      ],
      "name": "getObjectCreator",
      "outputs": [
        {
          "name": "",
          "type": "address"
        }
      ],
      "payable": false,
      "stateMutability": "view",
      "type": "function"
    },
    {
      "constant": true,
      "inputs": [
        {
          "name": "objID",
          "type": "uint256"
        }
      ],
      "name": "getObjectPriceDaily",
      "outputs": [
        {
          "name": "",
          "type": "uint256"
        }
      ],
      "payable": false,
      "stateMutability": "view",
      "type": "function"
    },
    {
      "constant": true,
      "inputs": [
        {
          "name": "objID",
          "type": "uint256"
        }
      ],
      "name": "getObjectDeposit",
      "outputs": [
        {
          "name": "",
          "type": "uint256"
        }
      ],
      "payable": false,
      "stateMutability": "view",
      "type": "function"
    },
    {
      "constant": true,
      "inputs": [
        {
          "name": "objID",
          "type": "uint256"
        }
      ],
      "name": "getObjectRenterAddress",
      "outputs": [
        {
          "name": "",
          "type": "address"
        }
      ],
      "payable": false,
      "stateMutability": "view",
      "type": "function"
    },
    {
      "constant": true,
      "inputs": [
        {
          "name": "objID",
          "type": "uint256"
        }
      ],
      "name": "getObjectRenterSince",
      "outputs": [
        {
          "name": "",
          "type": "uint256"
        }
      ],
      "payable": false,
      "stateMutability": "view",
      "type": "function"
    },
    {
      "constant": true,
      "inputs": [
        {
          "name": "objID",
          "type": "uint256"
        }
      ],
      "name": "getObjectDetail",
      "outputs": [
        {
          "name": "",
          "type": "string"
        }
      ],
      "payable": false,
      "stateMutability": "view",
      "type": "function"
    }
  ],
  "bytecode": "0x608060405234801561001057600080fd5b5033600460006101000a81548173ffffffffffffffffffffffffffffffffffffffff021916908373ffffffffffffffffffffffffffffffffffffffff160217905550611997806100616000396000f3fe6080604052600436106100e6576000357c0100000000000000000000000000000000000000000000000000000000900463ffffffff16806304c38115146100eb57806318f8479914610116578063202c909414610191578063322db2971461024557806334b05db91461027057806339856060146102b65780634816a49014610309578063673e86fe146104265780637ea0c8bd146104925780638da5cb5b14610546578063ace716ff1461059d578063c774e16c146105ec578063dce37ddb14610667578063ddbffef4146106b6578063e6adf19714610705578063eb191eb21461074b575b600080fd5b3480156100f757600080fd5b50610100610955565b6040518082815260200191505060405180910390f35b34801561012257600080fd5b5061014f6004803603602081101561013957600080fd5b810190808035906020019092919050505061095b565b604051808273ffffffffffffffffffffffffffffffffffffffff1673ffffffffffffffffffffffffffffffffffffffff16815260200191505060405180910390f35b34801561019d57600080fd5b506101ca600480360360208110156101b457600080fd5b810190808035906020019092919050505061099e565b6040518080602001828103825283818151815260200191508051906020019080838360005b8381101561020a5780820151818401526020810190506101ef565b50505050905090810190601f1680156102375780820380516001836020036101000a031916815260200191505b509250505060405180910390f35b34801561025157600080fd5b5061025a610cb6565b6040518082815260200191505060405180910390f35b61029c6004803603602081101561028657600080fd5b8101908080359060200190929190505050610cc0565b604051808215151515815260200191505060405180910390f35b3480156102c257600080fd5b506102ef600480360360208110156102d957600080fd5b8101908080359060200190929190505050610ec5565b604051808215151515815260200191505060405180910390f35b34801561031557600080fd5b506103cf6004803603602081101561032c57600080fd5b810190808035906020019064010000000081111561034957600080fd5b82018360208201111561035b57600080fd5b8035906020019184600183028401116401000000008311171561037d57600080fd5b91908080601f016020809104026020016040519081016040528093929190818152602001838380828437600081840152601f19601f820116905080830192505050505050509192919290505050610ef2565b6040518080602001828103825283818151815260200191508051906020019060200280838360005b838110156104125780820151818401526020810190506103f7565b505050509050019250505060405180910390f35b34801561043257600080fd5b5061043b610fb8565b6040518080602001828103825283818151815260200191508051906020019060200280838360005b8381101561047e578082015181840152602081019050610463565b505050509050019250505060405180910390f35b34801561049e57600080fd5b506104cb600480360360208110156104b557600080fd5b8101908080359060200190929190505050611010565b6040518080602001828103825283818151815260200191508051906020019080838360005b8381101561050b5780820151818401526020810190506104f0565b50505050905090810190601f1680156105385780820380516001836020036101000a031916815260200191505b509250505060405180910390f35b34801561055257600080fd5b5061055b6110c8565b604051808273ffffffffffffffffffffffffffffffffffffffff1673ffffffffffffffffffffffffffffffffffffffff16815260200191505060405180910390f35b3480156105a957600080fd5b506105d6600480360360208110156105c057600080fd5b81019080803590602001909291905050506110ee565b6040518082815260200191505060405180910390f35b3480156105f857600080fd5b506106256004803603602081101561060f57600080fd5b8101908080359060200190929190505050611111565b604051808273ffffffffffffffffffffffffffffffffffffffff1673ffffffffffffffffffffffffffffffffffffffff16815260200191505060405180910390f35b34801561067357600080fd5b506106a06004803603602081101561068a57600080fd5b8101908080359060200190929190505050611151565b6040518082815260200191505060405180910390f35b3480156106c257600080fd5b506106ef600480360360208110156106d957600080fd5b8101908080359060200190929190505050611171565b6040518082815260200191505060405180910390f35b6107316004803603602081101561071b57600080fd5b8101908080359060200190929190505050611191565b604051808215151515815260200191505060405180910390f35b34801561075757600080fd5b50610953600480360360a081101561076e57600080fd5b810190808035906020019064010000000081111561078b57600080fd5b82018360208201111561079d57600080fd5b803590602001918460018302840111640100000000831117156107bf57600080fd5b91908080601f016020809104026020016040519081016040528093929190818152602001838380828437600081840152601f19601f82011690508083019250505050505050919291929080359060200190929190803590602001909291908035906020019064010000000081111561083657600080fd5b82018360208201111561084857600080fd5b8035906020019184600183028401116401000000008311171561086a57600080fd5b91908080601f016020809104026020016040519081016040528093929190818152602001838380828437600081840152601f19601f820116905080830192505050505050509192919290803590602001906401000000008111156108cd57600080fd5b8201836020820111156108df57600080fd5b8035906020019184600183028401116401000000008311171561090157600080fd5b91908080601f016020809104026020016040519081016040528093929190818152602001838380828437600081840152601f19601f820116905080830192505050505050509192919290505050611405565b005b60015481565b60006002600083815260200190815260200160002060040160000160009054906101000a900473ffffffffffffffffffffffffffffffffffffffff169050919050565b60606109a86118d7565b6002600084815260200190815260200160002061010060405190810160405290816000820160009054906101000a900473ffffffffffffffffffffffffffffffffffffffff1673ffffffffffffffffffffffffffffffffffffffff1673ffffffffffffffffffffffffffffffffffffffff168152602001600182018054600181600116156101000203166002900480601f016020809104026020016040519081016040528092919081815260200182805460018160011615610100020316600290048015610ab75780601f10610a8c57610100808354040283529160200191610ab7565b820191906000526020600020905b815481529060010190602001808311610a9a57829003601f168201915b505050505081526020016002820154815260200160038201548152602001600482016040805190810160405290816000820160009054906101000a900473ffffffffffffffffffffffffffffffffffffffff1673ffffffffffffffffffffffffffffffffffffffff1673ffffffffffffffffffffffffffffffffffffffff16815260200160018201548152505081526020016006820160009054906101000a900460ff16151515158152602001600782018054600181600116156101000203166002900480601f016020809104026020016040519081016040528092919081815260200182805460018160011615610100020316600290048015610bfc5780601f10610bd157610100808354040283529160200191610bfc565b820191906000526020600020905b815481529060010190602001808311610bdf57829003601f168201915b50505050508152602001600882018054600181600116156101000203166002900480601f016020809104026020016040519081016040528092919081815260200182805460018160011615610100020316600290048015610c9e5780601f10610c7357610100808354040283529160200191610c9e565b820191906000526020600020905b815481529060010190602001808311610c8157829003601f168201915b50505050508152505090508060200151915050919050565b6000600154905090565b6000610ccb82610ec5565b80610ceb5750600260008381526020019081526020016000206003015434105b80610d5757506002600083815260200190815260200160002060000160009054906101000a900473ffffffffffffffffffffffffffffffffffffffff1673ffffffffffffffffffffffffffffffffffffffff163373ffffffffffffffffffffffffffffffffffffffff16145b15610d6157600080fd5b60408051908101604052803373ffffffffffffffffffffffffffffffffffffffff168152602001428152506002600084815260200190815260200160002060040160008201518160000160006101000a81548173ffffffffffffffffffffffffffffffffffffffff021916908373ffffffffffffffffffffffffffffffffffffffff1602179055506020820151816001015590505060006002600084815260200190815260200160002060030154340390506002600084815260200190815260200160002060040160000160009054906101000a900473ffffffffffffffffffffffffffffffffffffffff1673ffffffffffffffffffffffffffffffffffffffff166108fc829081150290604051600060405180830381858888f193505050501515610e8c57600080fd5b60016002600085815260200190815260200160002060060160006101000a81548160ff0219169083151502179055506001915050919050565b60006002600083815260200190815260200160002060060160009054906101000a900460ff169050919050565b60606003826040518082805190602001908083835b602083101515610f2c5780518252602082019150602081019050602083039250610f07565b6001836020036101000a0380198251168184511680821785525050505050509050019150509081526020016040518091039020600001805480602002602001604051908101604052809291908181526020018280548015610fac57602002820191906000526020600020905b815481526020019060010190808311610f98575b50505050509050919050565b6060600080548060200260200160405190810160405280929190818152602001828054801561100657602002820191906000526020600020905b815481526020019060010190808311610ff2575b5050505050905090565b6060600260008381526020019081526020016000206007018054600181600116156101000203166002900480601f0160208091040260200160405190810160405280929190818152602001828054600181600116156101000203166002900480156110bc5780601f10611091576101008083540402835291602001916110bc565b820191906000526020600020905b81548152906001019060200180831161109f57829003601f168201915b50505050509050919050565b600460009054906101000a900473ffffffffffffffffffffffffffffffffffffffff1681565b600060026000838152602001908152602001600020600401600101549050919050565b60006002600083815260200190815260200160002060000160009054906101000a900473ffffffffffffffffffffffffffffffffffffffff169050919050565b600060026000838152602001908152602001600020600301549050919050565b600060026000838152602001908152602001600020600201549050919050565b60006002600083815260200190815260200160002060060160009054906101000a900460ff1615156111c257600080fd5b3373ffffffffffffffffffffffffffffffffffffffff166002600084815260200190815260200160002060040160000160009054906101000a900473ffffffffffffffffffffffffffffffffffffffff1673ffffffffffffffffffffffffffffffffffffffff1614151561123557600080fd5b6000620151806002600085815260200190815260200160002060040160010154420381151561126057fe5b04905060006002600085815260200190815260200160002060020154820290506002600085815260200190815260200160002060000160009054906101000a900473ffffffffffffffffffffffffffffffffffffffff1673ffffffffffffffffffffffffffffffffffffffff166108fc829081150290604051600060405180830381858888f1935050505015156112f657600080fd5b6002600085815260200190815260200160002060040160000160009054906101000a900473ffffffffffffffffffffffffffffffffffffffff1673ffffffffffffffffffffffffffffffffffffffff166108fc826002600088815260200190815260200160002060030154039081150290604051600060405180830381858888f19350505050151561138757600080fd5b60026000858152602001908152602001600020600401600080820160006101000a81549073ffffffffffffffffffffffffffffffffffffffff02191690556001820160009055505060006002600086815260200190815260200160002060060160006101000a81548160ff0219169083151502179055505050919050565b61140d6118d7565b60026000600154815260200190815260200160002061010060405190810160405290816000820160009054906101000a900473ffffffffffffffffffffffffffffffffffffffff1673ffffffffffffffffffffffffffffffffffffffff1673ffffffffffffffffffffffffffffffffffffffff168152602001600182018054600181600116156101000203166002900480601f01602080910402602001604051908101604052809291908181526020018280546001816001161561010002031660029004801561151e5780601f106114f35761010080835404028352916020019161151e565b820191906000526020600020905b81548152906001019060200180831161150157829003601f168201915b505050505081526020016002820154815260200160038201548152602001600482016040805190810160405290816000820160009054906101000a900473ffffffffffffffffffffffffffffffffffffffff1673ffffffffffffffffffffffffffffffffffffffff1673ffffffffffffffffffffffffffffffffffffffff16815260200160018201548152505081526020016006820160009054906101000a900460ff16151515158152602001600782018054600181600116156101000203166002900480601f0160208091040260200160405190810160405280929190818152602001828054600181600116156101000203166002900480156116635780601f1061163857610100808354040283529160200191611663565b820191906000526020600020905b81548152906001019060200180831161164657829003601f168201915b50505050508152602001600882018054600181600116156101000203166002900480601f0160208091040260200160405190810160405280929190818152602001828054600181600116156101000203166002900480156117055780601f106116da57610100808354040283529160200191611705565b820191906000526020600020905b8154815290600101906020018083116116e857829003601f168201915b50505050508152505090506003866040518082805190602001908083835b6020831015156117485780518252602082019150602081019050602083039250611723565b6001836020036101000a0380198251168184511680821785525050505050509050019150509081526020016040518091039020600001600154908060018154018082558091505090600182039060005260206000200160009091929091909150555033816000019073ffffffffffffffffffffffffffffffffffffffff16908173ffffffffffffffffffffffffffffffffffffffff1681525050858160200181905250848160400181815250508381606001818152505060008160a0019015159081151581525050828160c00181905250818160e001819052507f34ed2f26f2ce17e86e267fe3e5e005eb9e9f078e4514c7c473e985fa83a04d1d60015433604051808381526020018273ffffffffffffffffffffffffffffffffffffffff1673ffffffffffffffffffffffffffffffffffffffff1681526020019250505060405180910390a160006001549080600181540180825580915050906001820390600052602060002001600090919290919091505550600160008154809291906001019190505550505050505050565b61012060405190810160405280600073ffffffffffffffffffffffffffffffffffffffff16815260200160608152602001600081526020016000815260200161191e61193b565b815260200160001515815260200160608152602001606081525090565b6040805190810160405280600073ffffffffffffffffffffffffffffffffffffffff16815260200160008152509056fea165627a7a7230582021f9bd7147b104650c163efd2478b7bcc90083c1e2de1d5a21d27d0284ae911b0029",
  "source": "pragma solidity >0.4.99 <0.6.0;\n\ncontract ShareApp{\n   \n   //租借者信息\n\tstruct Renter{\n\t\taddress payable addr;    //租借者地址\n\t\tuint since;      //租借开始时间\n\t}\n\n    //物品信息\n\tstruct Object{\n\t\taddress payable creator; // 物品拥有者\n\t\tstring name;    //物品名称\n\t\tuint priceDaily;  //出租物品单价\n\t\tuint deposit;     //共享物品押金\n\t\tRenter renter;    //租借者\n\t\tbool rented;      //是否被租借\n\t\tstring detail;    //物品详情\n\t\tstring image_addr; //物品图片地址\n\t}\n\n\tstruct NameKey{ // storage the name's keys\n\t\tuint[] keys;\n\t}\n\n\t//物品列表\n\tuint[] private ids;  //Use it to return the ids of Objects\n\tuint public numObjects;  //物品数量\n\tmapping(uint => Object) private objects;   //物品Id到物品结构体的映射\n\tmapping(string => NameKey) private nameToKeys;     \n\t\n\taddress public owner;\n\n\t//E创建新物品时的事件\n\tevent NewObject(uint objID, address creator);\n\t \n//   //非法的物品id\n//     require(objID < numObjects);\n\n\n//   //这个条件的内容是假设发送者不是owner（管理者），就跳出。起到一个身份鉴别的作用。\n//     require(msg.sender == owner);\n  \n\n\n\n\t//构造函数，用于存储代币的管理者\n\tconstructor() public{\n     \towner = msg.sender;\n    } \n\t\t\n\t\n    \n    //\n\tfunction  objectIsRented(uint objID)  public returns (bool){\n\t\treturn objects[objID].rented;\n\t}\n    \n    //创建新的物品\n\tfunction createObj(string memory name,uint priceDaily,uint deposit,string memory detail,string memory addr) public {\n         \n//      address creator; // 物品拥有者\n// \t\tstring name;    //物品名称\n// \t\tuint priceDaily;  //出租物品单价\n// \t\tuint deposit;     //共享物品押金\n// \t\tRenter renter;    //租借者\n// \t\tbool rented;      //是否被租借\n// \t\tstring detail;    //物品详情\n// \t\tstring image_addr; //物品图片地址\n\n\n\t\t\n\t\tObject memory  newObject = objects[numObjects];\n\t\tnameToKeys[name].keys.push(numObjects); //add the key to the name's keys\n\n\t\tnewObject.creator = msg.sender;\n\t\tnewObject.name = name;\n\t\tnewObject.priceDaily = priceDaily;\n\t\tnewObject.deposit = deposit;\n\t\tnewObject.rented = false;\n\t\tnewObject.detail = detail;\n        newObject.image_addr = addr;\n\n\t\temit NewObject(numObjects,msg.sender);\n\t\tids.push(numObjects);\n\t\tnumObjects++;\n\t}\n\n   \t// function getAllObject() view returns(Object[]){\n   \t//     Object [] temp = new Object[](numObjects);\n   \t//     for(uint 1=0;i<numObjects;i++)\n   \t//     {\n   \t//         temp[i] = \n   \t//     }\n   \t    \n   \t// }\n\n    //归还\n\tfunction rentObj(uint objID) payable public returns(bool){\n\t\tif(objectIsRented(objID) || msg.value < objects[objID].deposit || msg.sender == objects[objID].creator){\n\t\t\trevert(); \n\t\t}\n\t\tobjects[objID].renter = Renter({addr:msg.sender, since:now});  //record the info of the renter\n\t\tuint rest = msg.value - objects[objID].deposit;\n\t\tif(!objects[objID].renter.addr.send(rest)){   // return the rest balance\n\t\t   revert(); \n\t\t}\n\t\tobjects[objID].rented = true;\n\t\treturn true;\n\t}\n\n\tfunction returnObj(uint objID) payable public returns (bool){\n\t\tif(!objects[objID].rented){\n\t\t    revert(); \n\t\t}\n\t\tif(objects[objID].renter.addr != msg.sender){\n\t\t\trevert(); \n\t\t}\n\t\tuint duration = (now - objects[objID].renter.since) / (24*60*60*1.0);\n\t\tuint charge = duration * objects[objID].priceDaily;\n\t\tif(!objects[objID].creator.send(charge)){\n\t\t\trevert(); \n\t\t}\n\t\tif(!objects[objID].renter.addr.send(objects[objID].deposit - charge)){\n\t\t\trevert(); \n\t\t}\n\t\tdelete objects[objID].renter;\n\t\tobjects[objID].rented = false;\n\t}\n\n\n\tfunction findNames(string memory name) view public returns(uint[] memory){\n\t\treturn nameToKeys[name].keys;\n\t}\n\n\tfunction getNumObjects() public returns(uint){\n\t\treturn numObjects;\n\t}\n\n\tfunction getObjectIds() public returns(uint[] memory){\n\t\treturn ids;\n\t}\n\n\tfunction getObjectName(uint objID) public returns(string memory objName){\n\t\tObject memory obj  = objects[objID];\n\t\tobjName = obj.name;\n\t}\n\n\tfunction getObjectCreator(uint objID) view public returns(address){\n\t\treturn objects[objID].creator;\n\t}\n\n\tfunction getObjectPriceDaily(uint objID) view public  returns(uint){\n\t\treturn objects[objID].priceDaily;\n\t}\n\n\tfunction getObjectDeposit(uint objID) view public  returns(uint){\n\t\treturn objects[objID].deposit;\n\t}\n\n\tfunction getObjectRenterAddress(uint objID) view public returns(address){\n\t\treturn objects[objID].renter.addr;\n\t}\n\n\tfunction getObjectRenterSince(uint objID) view public  returns(uint){\n\t\treturn objects[objID].renter.since;\n\t}\n\n\tfunction getObjectDetail(uint objID) view public returns(string memory){\n\t\treturn objects[objID].detail;\n\t}\n\n// \tfunction remove() public {\n// \t    assert(msg.sender == owner);\n// \t\t\tselfdestruct(owner);\n// \t\t\t// suicide(owner);\n// \t}\n}",
  "sourcePath": "D:/GethTest/BlockCainRent/contracts/ShareApp.sol",
  "compiler": {
    "name": "solc",
    "version": "0.5.0+commit.1d4f565a.Emscripten.clang"
  },
  "schemaVersion": "3.0.5",
  "updatedAt": "2019-03-31T15:10:19.702Z",
  "devdoc": {
    "methods": {}
  },
  "userdoc": {
    "methods": {}
  }
}